S01A0000476C6F76657320466F7220446561662056312E737265631C
S11300000C942A000C943F000C943F000C943F0085
S11300100C943F000C943F000C943F000C943F0060
S11300200C943F000C943F000C943F000C943F0050
S11300300C943F000C943F000C943F000C943F0040
S11300400C943F000C943F000C943F000C943F0030
S11300500C943F0011241FBECFE5D8E0DEBFCDBF16
S113006010E0A0E6B0E0EEE1F7E002C005900D92EA
S1130070A836B107D9F70E942C030C948D030C9475
S11300800000843008F072C0683008F06FC042305D
S113009008F06CC0813001F130F08230B1F183306E
S11300A009F44CC00895413059F42AB381E090E03A
S11300B002C0880F991F6A95E2F7822B8ABB0895C4
S11300C02AB381E090E002C0880F991F6A95E2F795
S11300D0809582238ABB0895413059F427B381E087
S11300E090E002C0880F991F6A95E2F7822B87BBC4
S11300F0089527B381E090E002C0880F991F6A95A4
S1130100E2F78095822387BB0895413059F424B3E4
S113011081E090E002C0880F991F6A95E2F7822B74
S113012084BB089524B381E090E002C0880F991F36
S11301306A95E2F78095822384BB0895413059F48F
S113014021B381E090E002C0880F991F6A95E2F71D
S1130150822B81BB089521B381E090E002C0880F17
S1130160991F6A95E2F78095822381BB08958430B4
S113017008F072C0683008F06FC0423008F06CC0FC
S1130180813001F130F08230B1F1833009F44CC098
S11301900895413059F42BB381E090E002C0880FF8
S11301A0991F6A95E2F7822B8BBB08952BB381E0EC
S11301B090E002C0880F991F6A95E2F78095822328
S11301C08BBB0895413059F428B381E090E002C01C
S11301D0880F991F6A95E2F7822B88BB089528B38C
S11301E081E090E002C0880F991F6A95E2F780953C
S11301F0822388BB0895413059F425B381E090E00F
S113020002C0880F991F6A95E2F7822B85BB089577
S113021025B381E090E002C0880F991F6A95E2F748
S11302208095822385BB0895413059F422B381E03F
S113023090E002C0880F991F6A95E2F7822B82BB77
S1130240089522B381E090E002C0880F991F6A9557
S1130250E2F78095822382BB08951F93CF93DF93A7
S1130260D82FC62F192F10650E947E01812F0E945E
S1130270A1018D2F0E94C7018C2F0E94C7010E94EB
S11302809A018FE19EE40197F1F700C00000DF912D
S1130290CF911F9108950F931F93CF93DF931F92D4
S11302A0CDB7DEB7082F192F10650E947E01812F6C
S11302B00E94A101802F0E94C7010E948C01812FFE
S11302C00E94B401CE0101960E94D3010E949A01BA
S11302D089810F90DF91CF911F910F9108958CE048
S11302E080B981B18E7F81B981B18D7F81B986B7A3
S11302F0806486BF86B7846086BF089586B78062AF
S113030086BF86B7806886BF06B607FEFDCF81B17B
S1130310887F8830E1F7089586B7806286BF86B704
S1130320806886BF06B607FEFDCF81B1887F803125
S1130330E1F7089586B7806186BF86B7806886BF77
S11303400895880F83B983B18E7F83B986B78F7D73
S113035086BF86B7806886BF06B607FEFDCF81B12B
S1130360887F8831E1F70895880F83B983B181606C
S113037083B986B78F7D86BF86B7806886BF06B689
S113038007FEFDCF81B1887F8034E1F7089583B9FA
S113039086B7806886BF06B607FEFDCF81B1887F29
S11303A08832E1F70895FC0196B7906896BF06B6C7
S11303B007FEFDCF91B1987F9035E1F783B180833B
S11303C00895CF93C82F482F417064E080E00E94C5
S11303D0B700C1FB442740F965E080E00E94B70004
S11303E0C2FB442740F966E080E00E94B700C3FBEB
S11303F0442740F967E080E00E94B700CF91089558
S1130400CF93C82F40E061E081E00E94B70040E054
S113041062E081E00E94B7008C2F82958F700E9469
S1130420E10141E063E081E00E94B7008FE99FE0D1
S11304300197F1F700C0000040E063E081E00E9412
S1130440B7008C2F0E94E10141E063E081E00E944B
S1130450B7008FE99FE00197F1F700C0000040E08A
S113046063E081E00E94B700CF9108952FE785EB08
S113047091E0215080409040E1F700C0000040E04E
S113048061E081E00E94B70040E062E081E00E9408
S1130490B70082E00E94E10141E063E081E00E9454
S11304A0B7008FE99FE00197F1F700C0000040E03A
S11304B063E081E00E94B70088E20E94000290EEAF
S11304C09A95F1F78FE00E94000220EE2A95F1F749
S11304D081E00E9400028FEF98E10197F1F700C0DC
S11304E0000086E00E9400020895CF93C82F41E0E7
S11304F061E081E00E94B70040E062E081E00E9498
S1130500B7008C2F82958F700E94E10141E063E077
S113051081E00E94B7008FE99FE00197F1F700C0E6
S1130520000040E063E081E00E94B7008C2F0E944D
S1130530E10141E063E081E00E94B7008FE99FE0C0
S11305400197F1F700C0000040E063E081E00E9401
S1130550B700CF9108950F931F93CF938C01C0E000
S113056003C00E947502CF5FF801EC0FF11D80817A
S11305708111F7CFCF911F910F910895CF92DF9200
S1130580EF92FF920F931F938B019C01672B682BB3
S1130590692B49F580E30E94750245C0DC01CB015B
S11305A0880F991FAA1FBB1F6C017D01CC0CDD1C99
S11305B0EE1CFF1CCC0CDD1CEE1CFF1CC80ED91E4F
S11305C0EA1EFB1EC901B8012AE030E040E050E019
S11305D00E946B036C0D7D1D8E1D9F1D022F132F1A
S11305E0242F352F04C061E070E080E090E0011515
S11305F011052105310591F62AE030E040E050E094
S11306000E946B03E22EF32E042F152F80E3860F36
S11306100E9475026E2D7F2D802F912F6130710500
S11306208105910549F71F910F91FF90EF90DF909D
S1130630CF900895813039F4603168F480E8860FF2
S11306400E9400020895823031F4603120F480EC7D
S1130650860F0E940002089541E064E080E00E9459
S1130660410041E065E080E00E94410041E066E035
S113067080E00E94410041E067E080E00E94410088
S113068041E061E081E00E94410041E062E081E0FC
S11306900E94410041E063E081E00E9441000E9429
S11306A036020E946F0163E081E090E00E942D0118
S11306B060E081E00E941A0380E690E00E94AB02B1
S11306C081E090E00E944B01682F70E080E090E0B0
S11306D00E94BE02FFCFA1E21A2EAA1BBB1BFD0182
S11306E00DC0AA1FBB1FEE1FFF1FA217B307E4070D
S11306F0F50720F0A21BB30BE40BF50B661F771F65
S1130700881F991F1A9469F7609570958095909544
S11107109B01AC01BD01CF010895F894FFCF09
S10B071E76616C7565313D0044
S9030000FC
