:100000000C942A000C9434000C9434000C943400AA
:100010000C9434000C9434000C9434000C94340090
:100020000C9434000C9434000C9434000C94340080
:100030000C9434000C9434000C9434000C94340070
:100040000C9434000C9434000C9434000C94340060
:100050000C94340011241FBECFE5D8E0DEBFCDBF25
:100060000E94E0030C942F040C94000087B180647C
:1000700087B987B18F7787B987B18F7D87B986B107
:100080008F7D86B986B1877F86B986B1816086B952
:1000900086B1826086B986B1846086B986B180688F
:1000A00086B90895843008F072C0683008F06FC0D7
:1000B000423008F06CC0813001F130F08230B1F193
:1000C000833009F44CC00895413059F42AB381E0DB
:1000D00090E002C0880F991F6A95E2F7822B8ABBD5
:1000E00008952AB381E090E002C0880F991F6A95B5
:1000F000E2F7809582238ABB0895413059F427B3F3
:1001000081E090E002C0880F991F6A95E2F7822B88
:1001100087BB089527B381E090E002C0880F991F44
:100120006A95E2F78095822387BB0895413059F4A0
:1001300024B381E090E002C0880F991F6A95E2F72E
:10014000822B84BB089524B381E090E002C0880F25
:10015000991F6A95E2F78095822384BB0895413008
:1001600059F421B381E090E002C0880F991F6A958D
:10017000E2F7822B81BB089521B381E090E002C0B9
:10018000880F991F6A95E2F78095822381BB0895B5
:10019000843008F072C0683008F06FC0423008F058
:1001A0006CC0813001F130F08230B1F1833009F45C
:1001B0004CC00895413059F42BB381E090E002C067
:1001C000880F991F6A95E2F7822B8BBB08952BB39A
:1001D00081E090E002C0880F991F6A95E2F7809550
:1001E00082238BBB0895413059F428B381E090E01D
:1001F00002C0880F991F6A95E2F7822B88BB089589
:1002000028B381E090E002C0880F991F6A95E2F759
:100210008095822388BB0895413059F425B381E04D
:1002200090E002C0880F991F6A95E2F7822B85BB88
:10023000089525B381E090E002C0880F991F6A9568
:10024000E2F78095822385BB0895413059F422B3AB
:1002500081E090E002C0880F991F6A95E2F7822B37
:1002600082BB089522B381E090E002C0880F991FFD
:100270006A95E2F78095822382BB0895813069F008
:1002800028F0823089F08330B1F008956F3F19F47F
:100290008FEF8ABB08951ABA08956F3F19F48FEF54
:1002A00087BB089517BA08956F3F19F48FEF84BB89
:1002B000089514BA08956F3F19F48FEF81BB089524
:1002C00011BA0895E199FECF90E09FBB8EBB6DBB44
:1002D0008CB384608CBB8CB382608CBB0895E19935
:1002E000FECF90E09FBB8EBB8CB381608CBB8DB387
:1002F000FB0180830895CF93C82F482F417064E09D
:1003000082E00E94C800C1FB442740F965E082E01A
:100310000E94C800C2FB442740F966E082E00E94C8
:10032000C800C3FB442740F967E082E00E94C80090
:10033000CF910895CF93C82F40E061E081E00E9403
:10034000C80040E062E081E00E94C8008C2F8295E6
:100350008F700E947B0141E063E081E00E94C80051
:100360008FE99FE00197F1F700C0000040E063E0F3
:1003700081E00E94C8008C2F0E947B0141E063E075
:1003800081E00E94C8008FE99FE00197F1F700C06B
:10039000000040E063E081E00E94C800CF91089532
:1003A0002FE785EB91E0215080409040E1F700C0BD
:1003B000000040E061E081E00E94C80040E062E0AF
:1003C00081E00E94C80082E00E947B0141E063E07E
:1003D00081E00E94C8008FE99FE00197F1F700C01B
:1003E000000040E063E081E00E94C80088E20E94D3
:1003F0009A0190EE9A95F1F78FE00E949A0120EE13
:100400002A95F1F781E00E949A018FEF98E1019718
:10041000F1F700C0000086E00E949A010895CF9392
:10042000C82F41E061E081E00E94C80040E062E046
:1004300081E00E94C8008C2F82958F700E947B0102
:1004400041E063E081E00E94C8008FE99FE00197EE
:10045000F1F700C0000040E063E081E00E94C800C6
:100460008C2F0E947B0141E063E081E00E94C80084
:100470008FE99FE00197F1F700C0000040E063E0E2
:1004800081E00E94C800CF910895813039F4603135
:1004900068F480E8860F0E949A010895823031F452
:1004A000603120F480EC860F0E949A010895EF924B
:1004B000FF920F931F93CF93DF937C01D0E11EC077
:1004C00080E2F701ED0FF11D8083C0E00FC0DC1367
:1004D0000AC060E082E00E944502F80180810E942B
:1004E0000F02CF5F03C00E940F02CF5F87010C0F86
:1004F000111DF80180818111EACFD150D111E0CFD7
:10050000DF91CF911F910F91FF90EF90089569E4D3
:1005100080E00E94620160E281E00E9462016CE47E
:1005200082E00E9462016FE683E00E94620166E75A
:1005300084E00E94620165E685E00E94620160E25B
:1005400086E00E94620169E587E00E9462016FE631
:1005500088E00E94620165E789E00E94620167E429
:100560008AE00E9462016FE68BE00E9462016FE602
:100570008CE00E94620164E68DE00E94620160E20C
:100580008EE00E9462016AE48FE00E9462016FE6E1
:1005900080E10E94620162E681E10E94620169E4F9
:1005A00082E10E94620160E283E10E94620167E7EA
:1005B00084E10E94620161E685E10E94620164E7D4
:1005C00086E10E94620163E687E10E94620168E6BB
:1005D00088E10E94620160E289E10E94620169E7AC
:1005E0008BE10E9462016FE68CE10E94620165E787
:1005F0008DE10E94620164E58EE10E94620168E67D
:100600008FE10E94620161E680E20E94620164E77C
:1006100081E20E94620160E282E20E94620169E678
:1006200083E20E94620163E784E20E94620160E269
:1006300085E20E94620166E686E20E94620161E64E
:1006400087E20E9462016EE688E20E94620164E72E
:1006500089E20E94620161E68AE20E94620163E728
:100660008BE20E94620164E78CE20E94620169E60B
:100670008DE20E94620163E68EE20E94620169E4FB
:100680008FE20E94620160E280E30E94620167E7FC
:1006900081E30E94620169E682E30E94620163E7EE
:1006A00083E30E94620168E684E30E94620160E2E3
:1006B00085E30E94620169E786E30E9462016FE6BA
:1006C00087E30E94620165E788E30E94620160E2BD
:1006D00089E30E94620167E68AE30E9462016FE695
:1006E0008BE30E9462016FE68CE30E94620164E684
:1006F0008DE30E94620160E28EE30E9462016CE67B
:100700008FE30E94620169E680E40E94620166E66E
:1007100081E40E94620165E683E40E94620169E46B
:1007200084E40E94620160E285E40E94620162E763
:1007300086E40E94620165E687E40E94620161E648
:1007400088E40E9462016CE689E40E9462016CE622
:100750008AE40E94620169E78BE40E94620160E220
:100760008CE40E9462016CE68EE40E9462016FE6F6
:100770008FE40E94620166E780E50E94620165E6FF
:1007800081E50E94620160E282E50E94620169E700
:1007900083E50E9462016FE684E50E94620165E7DD
:1007A00085E50E94620169E586E50E9462016FE6C7
:1007B00087E50E94620165E788E50E94620108956D
:1007C000CF93DF93CDB7DEB762970FB6F894DEBF55
:1007D0000FBECDBF60E080E00E943E0141E064E0DA
:1007E00082E00E94520041E065E082E00E945200F7
:1007F00041E066E082E00E94520041E067E082E072
:100800000E94520041E061E081E00E94520041E01C
:1008100062E081E00E94520041E063E081E00E94DA
:1008200052000E94D0010E9487021B8A10E00EC075
:10083000E12EF12C8EE1810F0E946F01E1E0F0E0EA
:10084000EC0FFD1FEE0DFF1D80831F5F113180F344
:10085000CE0101960E9457020E943600FFCFF89405
:02086000FFCFC8
:00000001FF
