:100000000C942A000C9434000C9434000C943400AA
:100010000C9434000C9434000C9434000C94340090
:100020000C9434000C9434000C9434000C94340080
:100030000C9434000C9434000C9434000C94340070
:100040000C9434000C9434000C9434000C94340060
:100050000C94340011241FBECFE5D8E0DEBFCDBF25
:100060000E945D070C9471070C94000087B18064B6
:1000700087B987B18F7787B987B18F7D87B986B107
:100080008F7D86B986B1806886B986B1816086B970
:1000900086B1826086B986B1846086B9089580325F
:1000A000B0F46115710599F097B1907E97B997B149
:1000B000892B87B986B1806486B9349BFECF86B11F
:1000C000806186B984B195B1FB01918380830895E5
:1000D000843008F072C0683008F06FC0423008F019
:1000E0006CC0813001F130F08230B1F1833009F41D
:1000F0004CC00895413059F42AB381E090E002C029
:10010000880F991F6A95E2F7822B8ABB08952AB35C
:1001100081E090E002C0880F991F6A95E2F7809510
:1001200082238ABB0895413059F427B381E090E0DF
:1001300002C0880F991F6A95E2F7822B87BB08954A
:1001400027B381E090E002C0880F991F6A95E2F71B
:100150008095822387BB0895413059F424B381E010
:1001600090E002C0880F991F6A95E2F7822B84BB4A
:10017000089524B381E090E002C0880F991F6A952A
:10018000E2F78095822384BB0895413059F421B36E
:1001900081E090E002C0880F991F6A95E2F7822BF8
:1001A00081BB089521B381E090E002C0880F991FC0
:1001B0006A95E2F78095822381BB0895843008F028
:1001C00072C0683008F06FC0423008F06CC08130F7
:1001D00001F130F08230B1F1833009F44CC0089560
:1001E000413059F42BB381E090E002C0880F991F91
:1001F0006A95E2F7822B8BBB08952BB381E090E0E8
:1002000002C0880F991F6A95E2F7809582238BBB05
:100210000895413059F428B381E090E002C0880F7E
:10022000991F6A95E2F7822B88BB089528B381E075
:1002300090E002C0880F991F6A95E2F780958223AB
:1002400088BB0895413059F425B381E090E002C0A5
:10025000880F991F6A95E2F7822B85BB089525B315
:1002600081E090E002C0880F991F6A95E2F78095BF
:10027000822385BB0895413059F422B381E090E098
:1002800002C0880F991F6A95E2F7822B82BB0895FE
:1002900022B381E090E002C0880F991F6A95E2F7CF
:1002A0008095822382BB0895E199FECF90E09FBBA9
:1002B0008EBB6DBB8CB384608CBB8CB382608CBBFB
:1002C0000895E199FECF90E09FBB8EBB8CB3816017
:1002D0008CBB8DB3089569E470E080E090E00E94EB
:1002E000540160E270E081E090E00E9454016CE40F
:1002F00070E082E090E00E9454016FE670E083E0DD
:1003000090E00E94540166E770E084E090E00E9473
:10031000540165E670E085E090E00E94540160E2DF
:1003200070E086E090E00E94540169E570E087E0AB
:1003300090E00E9454016FE670E088E090E00E9437
:10034000540165E770E089E090E00E94540167E4A1
:1003500070E08AE090E00E9454016FE670E08BE06C
:1003600090E00E9454016FE670E08CE090E00E9403
:10037000540164E670E08DE090E00E94540160E278
:1003800070E08EE090E00E9454016AE470E08FE03B
:1003900090E00E9454016FE670E080E190E00E94DE
:1003A000540162E670E081E190E00E94540169E44A
:1003B00070E082E190E00E94540160E270E083E12D
:1003C00090E00E94540167E770E084E190E00E94B1
:1003D000540161E670E085E190E00E94540164E719
:1003E00070E086E190E00E94540163E670E087E1EE
:1003F00090E00E94540168E670E088E190E00E947D
:10040000540160E270E089E190E00E94540169E7E4
:1004100070E08AE190E00E9454016FE670E08BE1A9
:1004200090E00E94540165E770E08CE190E00E944A
:10043000540164E570E08DE190E00E94540168E6AB
:1004400070E08EE190E00E94540161E670E08FE17F
:1004500090E00E94540164E770E080E290E00E9426
:10046000540160E270E081E290E00E94540169E68C
:1004700070E082E290E00E94540163E770E083E262
:1004800090E00E94540160E270E084E290E00E94FB
:10049000540166E670E085E290E00E94540161E656
:1004A00070E086E290E00E9454016EE670E087E220
:1004B00090E00E94540164E770E088E290E00E94BE
:1004C000540161E670E089E290E00E94540163E724
:1004D00070E08AE290E00E94540164E770E08BE2F1
:1004E00090E00E94540169E670E08CE290E00E9486
:1004F000540163E670E08DE290E00E94540169E4EB
:1005000070E08EE290E00E94540160E270E08FE2C1
:1005100090E00E94540167E770E080E390E00E9461
:10052000540169E670E081E390E00E94540163E7C2
:1005300070E082E390E00E94540168E670E083E39B
:1005400090E00E94540160E270E084E390E00E9439
:10055000540169E770E085E390E00E9454016FE682
:1005600070E086E390E00E94540165E770E087E365
:1005700090E00E94540160E270E088E390E00E9405
:10058000540167E670E089E390E00E9454016FE651
:1005900070E08AE390E00E9454016FE670E08BE324
:1005A00090E00E94540164E670E08CE390E00E94C9
:1005B000540160E270E08DE390E00E9454016CE62B
:1005C00070E08EE390E00E94540169E670E08FE3F2
:1005D00090E00E94540166E670E080E490E00E94A2
:1005E000540165E670E081E490E00E94540169E402
:1005F00070E082E490E00E94540160E270E083E4E5
:1006000090E00E94540162E770E084E490E00E9470
:10061000540165E670E085E490E00E94540161E6D3
:1006200070E086E490E00E9454016CE670E087E49C
:1006300090E00E9454016CE670E088E490E00E9433
:10064000540169E770E089E490E00E94540160E29F
:1006500070E08AE490E00E9454016CE670E08BE464
:1006600090E00E9454016FE670E08CE490E00E94FC
:10067000540166E770E08DE490E00E94540165E665
:1006800070E08EE490E00E94540160E270E08FE43C
:1006900090E00E94540169E770E080E590E00E94DC
:1006A00054016FE670E081E590E00E94540165E737
:1006B00070E082E590E00E94540169E570E083E516
:1006C00090E00E9454016FE670E084E590E00E94A3
:1006D000540165E770E085E590E00E9454010895BB
:1006E00040E060E080E00E94680040E061E080E07F
:1006F0000E94680040E062E080E00E94680040E004
:1007000063E080E00E94680040E064E080E00E94D6
:10071000680041E064E082E00E94680041E065E03A
:1007200082E00E94680041E066E082E00E9468008A
:1007300041E067E082E00E94680041E061E081E022
:100740000E94680041E062E081E00E94680041E0B0
:1007500063E081E00E9468000895CF93DF93CDB7F6
:10076000DEB7A7970FB6F894DEBF0FBECDBF0E94CD
:100770006B010E9436000E945A06BE016F5F7F4FD8
:1007800080E00E944F0029813A81A8E8B3E10E94ED
:1007900062076B017C010B2EBAE0F694E794D794C4
:1007A000C794BA95D1F7B02D8601BE016D5F7F4F1A
:1007B00081E00E944F002B813C81A8E8B3E10E94B8
:1007C00062074B015C01072E7AE0B694A7949794D8
:1007D00087947A95D1F7702D1401BE016B5F7F4F1E
:1007E00082E00E944F002D813E81A8E8B3E10E9483
:1007F00062072B013C01032E3AE0769467945794EC
:1008000047943A95D1F7302D5DA24CA2BE01695FA5
:100810007F4F83E00E944F002F813885A8E8B3E125
:100820000E9462079B01AC01012E1AE05695479584
:10083000379527951A95D1F7102D28A339A34AA3E8
:100840005BA348A159A15FA34EA3BE01675F7F4F81
:1008500084E00E944F0029853A85A8E8B3E10E9410
:100860006207AB01BC01032E3AE076956795579578
:1008700047953A95D1F7302D9A0181E7C81682E065
:10088000D806B8F591E7891692E0990690F58CA103
:100890009DA18137924068F58EA19FA1813792403A
:1008A00040F5413782E0580720F59FEFE3ED20E364
:1008B0009150E0402040E1F700C000000E94500746
:1008C0001F8EF12C0EC00F2D10E0C8018E960E94D5
:1008D0006101EBE0F0E0EC0FFD1FE00FF11F808302
:1008E000F39433E13F1578F7CE010B960E94E106B1
:1008F00044CF013782E01807C8F591E7291692E046
:100900003906A0F5C20186539C408235974070F5A8
:1009100088A199A186539C408235974038F52137AC
:1009200082E0380718F59FEFE3ED20E39150E040B7
:100930002040E1F700C000000E9450071C8AF12C03
:100940000DC00F2D10E0C8010E946101EBE0F0E046
:10095000EC0FFD1FE00FF11F8083F39439E03F158A
:1009600080F7CE010B960E94E10607CF86E3C81AF6
:100970008CE0D80A92E5C91697E0D906D0F5E1E7F0
:100980002E16E2E03E06A8F5C20186539C40823551
:10099000974078F588A199A186539C40823597406D
:1009A00040F5213782E0380720F59FEFE3ED20E3A3
:1009B0009150E0402040E1F700C000000E94500745
:1009C0001C8EF12C0EC00F2D10E0C8014D960E9418
:1009D0006101EBE0F0E0EC0FFD1FE00FF11F808301
:1009E000F39430E13F1578F7CE010B960E94E106B3
:1009F000C4CE013782E01807C8F591E7291692E0C6
:100A00003906A0F58CA19DA18137924078F588A187
:100A100099A186539C408235974040F5213732405A
:100A200028F59FEFE3ED20E39150E0402040E1F70F
:100A300000C000000E9450071C8EF12C0FC00F2D2B
:100A400010E0C8018E5B9F4F0E946101EBE0F0E077
:100A5000EC0FFD1FE00FF11F8083F39430E13F1591
:100A600070F7CE010B960E94E10687CE82E5C8168C
:100A700087E0D806F0F5C401865694408F3C974035
:100A8000C0F5C20186539C408235974090F588A1FD
:100A900099A186539C408235974058F5CA018653E8
:100AA0009C408235974028F52FEF33ED40E32150ED
:100AB00030404040E1F700C000000E9450071E8611
:100AC000F12C0FC00F2D10E0C8018D5A9F4F0E94CE
:100AD0006101EBE0F0E0EC0FFD1FE00FF11F808300
:100AE000F39452E05F1570F7CE010B960E94E10679
:100AF00044CE01371240E8F5C40186539C4082354C
:100B00009740B8F5C20186539C408235974088F5DE
:100B100088A199A186539C408235974050F5CA011F
:100B200086539C408235974020F52FEF33ED40E30C
:100B3000215030404040E1F700C000000E945007C3
:100B40001B8AF12C0EC00F2D10E0C8010A960E94DE
:100B50006101EBE0F0E0EC0FFD1FE00FF11F80837F
:100B6000F39457E05F1578F7CE010B960E94E106EB
:100B700004CE82E5C81687E0D80608F0FECD96E6DA
:100B8000891A94E0990AEFEC8E16E7E09E0608F0C9
:100B9000F4CD26E6421A24E0520A3FEC431637E031
:100BA000530608F0EACD88A199A186539C4082356E
:100BB000974008F0E2CD46535C404235574008F07C
:100BC000DCCD3FEF43ED50E3315040405040E1F782
:100BD00000C000000E9450071E8AF12C0EC00F2D8D
:100BE00010E0C80142960E946101EBE0F0E0EC0FDA
:100BF000FD1FE00FF11F8083F3948AE08F1578F7D3
:100C0000CE010B960E94E106B8CDCF93C82F482F96
:100C1000417064E082E00E94DE00C1FB442740F99D
:100C200065E082E00E94DE00C2FB442740F966E0F6
:100C300082E00E94DE00C3FB442740F967E082E0C7
:100C40000E94DE00CF910895CF93C82F40E061E06D
:100C500081E00E94DE0040E062E081E00E94DE0070
:100C60008C2F82958F700E94050641E063E081E041
:100C70000E94DE008FE99FE00197F1F700C00000BD
:100C800040E063E081E00E94DE008C2F0E940506B8
:100C900041E063E081E00E94DE008FE99FE0019780
:100CA000F1F700C0000040E063E081E00E94DE0058
:100CB000CF9108952FE785EB91E02150804090403F
:100CC000E1F700C0000040E061E081E00E94DE004A
:100CD00040E062E081E00E94DE0082E00E940506C2
:100CE00041E063E081E00E94DE008FE99FE0019730
:100CF000F1F700C0000040E063E081E00E94DE0008
:100D000088E20E94240690EE9A95F1F78FE00E9407
:100D1000240620EE2A95F1F781E00E9424068FEF49
:100D200098E10197F1F700C0000086E00E942406D8
:100D30000895CF93C82F41E061E081E00E94DE007A
:100D400040E062E081E00E94DE008C2F82958F708F
:100D50000E94050641E063E081E00E94DE008FE929
:100D60009FE00197F1F700C0000040E063E081E000
:100D70000E94DE008C2F0E94050641E063E081E0C6
:100D80000E94DE008FE99FE00197F1F700C00000AC
:100D900040E063E081E00E94DE00CF910895813061
:100DA00039F4603168F480E8860F0E9424060895C3
:100DB000823031F4603120F480EC860F0E942406EA
:100DC0000895EF92FF920F931F93CF93DF93EC015F
:100DD00091E080E002C09F5F8F5FFE01E80FF11D90
:100DE00020812111F8CF923148F42CC0FE01E10F8F
:100DF000F11D8081803231F0115001C010E11111DC
:100E0000F5CF1FEF00E016C0402F50E0212F30E05B
:100E10002F5F3F4F4217530751F460E082E00E947A
:100E2000CF06F70180810E9499060F5F03C00E94E0
:100E300099060F5F7E01E00EF11CF70180818111A0
:100E4000E3CF27C08889803291F010E01CC01131B7
:100E500050F460E082E00E94CF06F70180810E949A
:100E600099061F5F05C00E9499061F5F01C010E030
:100E70007E01E10EF11CF70180818111E8CF09C0EC
:100E80000E9499061F5FFE01E10FF11D8081811113
:100E9000F7CFDF91CF911F910F91FF90EF900895C1
:100EA00081E00E9424068FE39FE10197F1F700C0E3
:100EB000000080E80E94240608950E9470030E94AA
:100EC000AD03FFCFA29FB001B39FC001A39F700DE0
:100ED000811D1124911DB29F700D811D1124911D42
:060EE0000895F894FFCF15
:00000001FF
